:102823003031323334353637383941424344454603
:102713001221DB122585122800122861122543128B
:102723002884D2AF12200012008AB2B012277F127F
:05273300287A80F62267
:1021DB0075D9007F1D12283375B28375868075A95A
:1021EB001075F8027580FF7590FF75A0FF75B0FF35
:1021FB0075C7FF75F1FF75F2FF75F3FF75F4FF758A
:10220B00F5FF75A40075A50075A60075A70175AE41
:10221B000075D40075D50075D60075DF0075E1002B
:10222B0075E30075E24075B8FF75F6FF75F7FF753E
:09223B00A80075E60075E7002219
:0427B70041023F217B
:01008A002253
:0A287A007D5B7F1C1200467F0122E7
:10008E009001F6EFF09001F7EDF09001F8EBF0A390
:10009E00EAF0A3E9F09001F7E0FFEFD3943E400DB4
:1000AE0090023FE0FFEF4404FF1227E9229001F691
:1000BE00E0FFEF120F1F04E20004E60F00EC100148
:1000CE002511015E12019C2001C03001E43102486D
:1000DE0040033D41043250046E51000004F590017E
:1000EE00F7E0FFEF64026004122812229001F8E09C
:1000FE00FBA3E0FAA3E0F9120E03FF9001F8E0FB78
:10010E00A3E0FAA3E0F9758201758300120E1CFDBF
:10011E001219ED122843229001F7E0FFEF640260FE
:10012E0004122812229001F8E0FBA3E0FAA3E0F9F2
:10013E00120E03FF9001F8E0FBA3E0FAA3E0F975BD
:10014E008201758300120E1CFD121DD2122843224D
:10015E009001F7E0FFEF6401600412281222900173
:10016E00F8E0FBA3E0FAA3E0F9120E03FF9001F80A
:10017E00E0FBA3E0FAA3E0F91214409001F8E0FBD3
:10018E00A3E0FAA3E0F97D017F921218FE229001FE
:10019E00F7E0FFEF64016004122812229001F8E0EC
:1001AE00FBA3E0FAA3E0F9120E03FF1225011228B9
:1001BE0043229001F7E0FFEF64016004122812223F
:1001CE009001F8E0FBA3E0FAA3E0F9120E03FF1290
:1001DE00263712284322E5E1B402449001F7E0FFEE
:1001EE00EF603C9001F7E0FF9001F8E0FBA3E0FA2E
:1001FE00A3E0F9C003C002C0019001F8E0FBA3E048
:10020E00FAA3E0F99001BAEBF0A3EAF0A3E9F0D07B
:10021E0001D002D0031213159001F7EFF080059074
:10022E0001F7E4F09001F7E0FD9001F8E0FBA3E0A8
:10023E00FAA3E0F97FB11218FE229001F7E0FFEF6A
:10024E00C39405500412281222E5E1640460026191
:10025E000C9001F8E0FBA3E0FAA3E0F9120E03FF05
:10026E009001F8E0FBA3E0FAA3E0F9758201758333
:10027E0000120E1CFD9001F8E0FBA3E0FAA3E0F9DA
:10028E00E92402F9EA3400FAC003C002C001900169
:10029E00F8E0FBA3E0FAA3E0F9758204758300127F
:1002AE000E1CFE9001C8EEF09001F8E0FBA3E0FA00
:1002BE00A3E0F9E92405F9EA3400FA9001C9EBF05C
:1002CE00A3EAF0A3E9F0D001D002D003120AF9900C
:1002DE0001FCEFF09001FCE0FF9001F8E0FBA3E0E1
:1002EE00FAA3E0F9758204758300EF120E5B90019C
:1002FE00FCE0FFEF2405FF9001F7EFF0801B90016B
:10030E00F8E0FBA3E0FAA3E0F9758204758300E43C
:10031E00120E5B9001F77405F09001F7E0FD90016D
:10032E00F8E0FBA3E0FAA3E0F97FC01218FE2290DA
:10033E0001F7E0FFEFC39405500412281222E5E105
:10034E006404600281019001F8E0FBA3E0FAA3E0EF
:10035E00F9120E03FF9001F8E0FBA3E0FAA3E0F917
:10036E00758201758300120E1CFD9001F8E0FBA34F
:10037E00E0FAA3E0F9E92402F9EA3400FAC003C076
:10038E0002C0019001F8E0FBA3E0FAA3E0F9758248
:10039E0004758300120E1CFE9001D5EEF09001F84C
:1003AE00E0FBA3E0FAA3E0F9E92405F9EA3400FA48
:1003BE009001D6EBF0A3EAF0A3E9F0D001D002D081
:1003CE00031209209001FBEFF09001FBE0FF90017A
:1003DE00F8E0FBA3E0FAA3E0F9758204758300EF61
:1003EE00120E5B9001FBE0FFEF2405FF9001F7EF8B
:1003FE00F0801B9001F8E0FBA3E0FAA3E0F9758210
:10040E0004758300E4120E5B9001F77405F0900101
:10041E00F7E0FD9001F8E0FBA3E0FAA3E0F97FC15D
:10042E001218FE22E5E1B4011C9001F7E0FD9001E7
:10043E00F8E0FBA3E0FAA3E0F97F00121E7A900128
:10044E00F7EFF080059001F7E4F09001F7E0FD90F2
:10045E0001F8E0FBA3E0FAA3E0F97FD01218FE2228
:10046E00E5E1640170539001FBE4F09001F7E0FFC9
:10047E009001FBE0FEEEC39F50337B007A007900C3
:10048E007F00121B94EF60259001F8E0FBA3E0FAC9
:10049E00A3E0F99001FBE0FF7E00E92FF9EA3EFAB6
:1004AE007F001218009001FBE004F080BE9001FB6B
:1004BE00E0FF9001F7EFF080059001F7E4F0900176
:1004CE00F7E0FD9001F8E0FBA3E0FAA3E0F97FD19D
:1004DE001218FE22122843229001F8E0FBA3E0FA44
:0B04EE00A3E0F9121668221228122267
:0F28430090023F7421F090023FE0FF1227E9223C
:1028120090023F7425F090023FE0FF1227E97F000B
:012822002293
:10273800900218EFF0900219EBF0A3EAF0A3E9F089
:10274800900219E0FBA3E0FAA3E0F9120E03FF9050
:052758000218EFF02261
:10166800900196EBF0A3EAF0A3E9F0900196E0FB75
:10167800A3E0FAA3E0F9120E03FF900199EFF090AE
:101688000196E0FBA3E0FAA3E0F9758201758300F7
:10169800120E1CFF7E00EF7F00FE900196E0FBA378
:1016A800E0FAA3E0F9758202758300120E1CFD7C36
:1016B80000EF2DFFEE3CFE90019AEEF0A3EFF090C4
:1016C8000199E0FFEF120F1F176E00176E0116E564
:1016D8005A17135B173E640000176E22229001967A
:1016E800E0FBA3E0FAA3E0F9758203758300120E0C
:1016F8001CFF90019AE0FCA3E0FD7B017A007900D1
:10170800E92DF9EA3CFAEF120E492290019AE0FE1F
:10171800A3E0FF7B017A007900E92FF9EA3EFA128B
:101728000E03FF90019CEFF07B017A01799C7D010B
:101738007F8F1218FE227B007A0079007F0012202A
:101748007A7B007A0079007D007F00121E7A7B0088
:101758007A0079007F007E0012216D902823E4939F
:07176800FF900199EFF02250
:1022AA002E0341006C006C00690065006400200088
:1022BA0043006F006D0070006F006E0065006E00D5
:1022CA007400200057006F0072006B0073002A032D
:1022DA004200610063006B004800610075006C00F9
:1022EA0065007200200050004D004F00440020009D
:1022FA0048006F007300740008033100300030009A
:04230A0010C4EA61B0
:0627BB00C102C101C100D2
:102000001224BA90230AE493FE740193FF90230CE8
:10201000E493FC740193FD7BFF7A2279AAC003C08C
:1020200002C0017BFF7A2279D890018CEBF0A3EA01
:10203000F0A3E9F07BFF7A23790290018FEBF0A304
:10204000EAF0A3E9F090019274FAF09001937480A1
:10205000F09001947401F0A3E4F0D001D002D00319
:102060001210AE1227D0D20143A9037D5B7F1C1250
:0A20700000467D5B7F1C1200462233
:10277F002000037F0022C200900105E0FF900106B8
:0E278F00E0FD7B017A01790712008E7F0122A6
:1018FE009001DDEFF09001DEEDF09001DFEBF0A353
:10190E00EAF0A3E9F09001DFE0FBA3E0FAA3E0F92F
:10191E009001E3EBF0A3EAF0A3E9F09001DEE0FF23
:10192E00EFD3943E40037F00229001DEE0FFEFD321
:10193E009400402D7B007A007900C003C002C001E4
:10194E009001DFE0FBA3E0FAA3E0F9D082D083D0D0
:10195E00E06B7008E965827003EA658370037F00AF
:10196E00229001DDE0FF900145EFF09001DEE0FFF7
:10197E00900146EFF09001E2E4F09001DEE0FF907E
:10198E0001E2E0FEEEC39F50329001E3E0FBA3E0E4
:10199E00FAA3E0F99001E2E0FF8F82758300120E48
:1019AE001CFF9001E2E0FE74472EF582E43401F54F
:1019BE0083EFF09001E2E004F080BF1225FEEF709D
:1019CE00037F00227B017A0179459001DEE0FF7EE4
:0F19DE0000EF2402FDEE3400FC1207307F0122DF
:1027E900900240EFF07B017A0279407D017F8012EF
:0327F90018FE22A5
:10216D009001EEEEF0A3EFF09001F0EBF0A3EAF0AA
:10217D00A3E9F09001F0E0FBA3E0FAA3E0F99001F0
:10218D00F3EBF0A3EAF0A3E9F09001EEE0FEA3E09B
:10219D00FFD3EF9400EE941040037F00229001EEE8
:1021AD00E0FEA3E0FFEF4E70037F00221225FEEF4D
:1021BD0070037F00229001F3E0FBA3E0FAA3E0F9A6
:0E21CD009001EEE0FCA3E0FD1207307F01223E
:1025FE00900235E4F0A3E4F0900235E0FEA3E0FF94
:10260E00C3EF94E8EE9403501D3001037F01227D49
:10261E005B7F1C120046900236E004F070069002BA
:09262E0035E004F080D27F0022A7
:03008B000220F45C
:1020F400C0E0C0F0C083C082C0D075D000C000C0B2
:1021040001C002C003C004C005C006C007122852A3
:10211400900237EFF0900237E0FFEF30E102D20196
:10212400900237E0FFEF30E2257B017A0179057DEB
:10213400401211E5900238EFF0300210900238E0BE
:10214400FF7B017A0179051227388002D200D0077B
:10215400D006D005D004D003D002D001D000D0D016
:09216400D082D083D0F0D0E0322B
:062884007F001225012275
:10250100900241EFF075A40075A5007580FF7590EC
:10251100FF75E10075D400900241E0FFEF120F1F3B
:10252100252E01253502253C030000254275A40D09
:1025310075E1022275D4FF75E1042275A41075E1DD
:02254100012275
:1019ED00900239EFF090023AEDF090023AE0FFEFFD
:1019FD006003D38001C39203E5E1B401169002396F
:101A0D00E0FFEF6402700241C6900239E0FFEFB4CF
:101A1D00030122E5E1B40416900239E0FFEF6403FF
:101A2D00700241C6900239E0FFEFB4040122E5E1F6
:101A3D00B4020A900239E0FFEF6401607C90023934
:101A4D00E0FFEF120F1F1A6F011A7A021A85031A9F
:101A5D0090041A9B071AA6081AB1091ABC0A0000AD
:101A6D001AC630030443A4082253A4F722300304FA
:101A7D0043A4042253A4FB2230030443A4022253A3
:101A8D00A4FD2230030443A4012253A4FE223003FB
:101A9D000443A4802253A47F2230030443A4402294
:101AAD0053A4BF2230030443A5022253A5FD2230C7
:0A1ABD00030443A5012253A5FE22F5
:101DD20090023BEFF090023CEDF090023CE0FFEF0E
:101DE2006003D38001C39204E5E1B4011690023B83
:101DF200E0FFEF64027002C17990023BE0FFEFB4B2
:101E0200030122E5E1B4041490023BE0FFEF640316
:101E1200606590023BE0FFEFB4040122E5E1B40209
:101E22000A90023BE0FFEF6401604C90023BE0FF4E
:101E3200EF120F1F1E52011E57021E5C031E610489
:101E42001E66071E6B081E70091E750A00001E79A9
:101E5200A204928322A204928222A204928122A24A
:101E620004928022A204928722A204928622A204D1
:081E7200929122A20492902239
:1014400090021CEFF090021DEBF0A3EAF0A3E9F08C
:101450007B007A007900C003C002C00190021DE049
:10146000FBA3E0FAA3E0F9D082D083D0E06B700850
:10147000E965827003EA65837002A15790021DE05E
:10148000FBA3E0FAA3E0F9E4120E4990021CE0FF8E
:10149000EF120F1F14B00114C50214DA0314EF0485
:1014A000150407151908152E0915430A00001557CC
:1014B000A283E433FF90021DE0FBA3E0FAA3E0F96E
:1014C000EF120E4922A282E433FF90021DE0FBA33B
:1014D000E0FAA3E0F9EF120E4922A281E433FF9073
:1014E000021DE0FBA3E0FAA3E0F9EF120E4922A2ED
:1014F00080E433FF90021DE0FBA3E0FAA3E0F9EFE4
:10150000120E4922A287E433FF90021DE0FBA3E004
:10151000FAA3E0F9EF120E4922A286E433FF90020B
:101520001DE0FBA3E0FAA3E0F9EF120E4922A2911D
:10153000E433FF90021DE0FBA3E0FAA3E0F9EF1211
:101540000E4922A290E433FF90021DE0FBA3E0FAD3
:08155000A3E0F9EF120E49229D
:1028000075A23B75A14043F80175A3FF7F00122616
:0228100037226D
:10263700900242EFF0900242E0FFEF120F1F265286
:10264700012659022660030000266753A1EF43A124
:10265700202243A11053A1DF2243A11043A120222E
:0726670053A1EF53A1DF2294
:101315009001B6EFF09001B7EBF0A3EAF0A3E9F086
:101325009001B7E0FBA3E0FAA3E0F99001BDEBF073
:10133500A3EAF0A3E9F09001BAE0FBA3E0FAA3E089
:10134500F99001C0EBF0A3EAF0A3E9F09001B6E053
:10135500FF8F127B007A007900C003C002C00190A4
:1013650001C0E0FBA3E0FAA3E0F9D082D083D0E08E
:101375006B7008E965827003EA658370047F0080FD
:10138500027F018F137B007A007900C003C002C081
:10139500019001BDE0FBA3E0FAA3E0F9D082D08380
:1013A500D0E06B7008E965827003EA658370037F9E
:1013B5000022E5A130E7037F0022C2837F021228C5
:1013C500337F021228339001BDE0FBA3E0FAA3E0CE
:1013D500F9120E03FF8F11751000E510C395125019
:1013E500488511A3AF107E00EF2401FFEE3400FE07
:1013F5009001BDE0FBA3E0FAA3E0F98F828E831292
:101405000E1CFF8F11E5A120E7FBE5136017900186
:10141500C0E0FBA3E0FAA3E0F9AF108F827583006B
:10142500E5A3120E5B051080B17F021228337F02FF
:0B143500122833D2839001B6E0FF22A2
:0D28610075CAE675CBFF75C80412279D22CD
:100AF9009001C3EFF09001C4EDF09001C5EBF0A3B4
:100B0900EAF0A3E9F09001C4E0FFEF602D7B007AE1
:100B1900007900C003C002C0019001C5E0FBA3E059
:100B2900FAA3E0F9D082D083D0E06B7008E965823E
:100B39007003EA658370037F00229001C8E0FFEF2C
:100B4900602D7B007A007900C003C002C0019001CA
:100B5900C9E0FBA3E0FAA3E0F9D082D083D0E06B2F
:100B69007008E965827003EA658370037F002230AB
:100B790091032090037F0022D2C5122425EF70042F
:100B890012279D22C2C59001C3E0FFEF25E0F5C2FF
:100B9900C2C0122425EF700412279D2220C104121D
:100BA900279D229001C4E0FFEFD39400406090019B
:100BB900C5E0FBA3E0FAA3E0F99001CDEBF0A3EACD
:100BC900F0A3E9F09001CCE4F09001C4E0FF9001BA
:100BD900CCE0FEEEC39F50369001CDE0FBA3E0FAD6
:100BE900A3E0F99001CCE0FF8F82758300120E1CFF
:100BF900FF8FC2C2C0122425EF700412279D222044
:100C0900C10412279D229001CCE004F080BB900121
:100C1900C8E0FFEFD3940040709001C9E0FBA3E066
:100C2900FAA3E0F99001CDEBF0A3EAF0A3E9F09083
:100C390001CCE4F09001C8E0FF9001CCE0FEEEC3E6
:100C49009F50469001CDE0FBA3E0FAA3E0F99001A3
:100C5900CCE0FF8F82758300120E1CFF8FC2C2C0C9
:100C6900122425EF700C12279D9001CCE0FEEF2E87
:100C7900FF2220C10C12279D9001CCE0FEEF2EFF30
:100C8900229001CCE004F080ABD2C4C2C07D5B7F6E
:0A0C99001C1200469001C8E0FF2283
:100920009001D0EFF09001D1EDF09001D2EBF0A367
:10093000EAF0A3E9F09001D1E0FFEF602D7B007AAF
:10094000007900C003C002C0019001D2E0FBA3E027
:10095000FAA3E0F9D082D083D0E06B7008E9658219
:100960007003EA658370037F00229001D5E0FFEFFA
:1009700070037F00227B007A007900C003C002C0B0
:10098000019001D6E0FBA3E0FAA3E0F9D082D08386
:10099000D0E06B7008E965827003EA658370037FBD
:1009A00000223091032090037F00229001D1E0FFCC
:1009B000EF70024140D2C5122425EF700412279D2A
:1009C00022C2C59001D0E0FFEF25E0F5C2C2C012FF
:1009D0002425EF700412279D2220C10412279D2296
:1009E0009001D2E0FBA3E0FAA3E0F99001DAEBF08A
:1009F000A3EAF0A3E9F09001D9E4F09001D1E0FF7F
:100A00009001D9E0FEEEC39F50369001DAE0FBA3DF
:100A1000E0FAA3E0F99001D9E0FF8F82758300121C
:100A20000E1CFF8FC2C2C0122425EF700412279D36
:100A30002220C10412279D229001D9E004F080BB3E
:100A4000D2C5C2C0122425EF700412279D22C2C550
:100A50009001D0E0FFEF25E0FFEF04F5C2C2C01225
:100A60002425EF700412279D2220C10412279D2205
:100A70009001D6E0FBA3E0FAA3E0F99001DAEBF0F5
:100A8000A3EAF0A3E9F09001D9E4F09001D5E0FFEA
:100A90009001D9E0FEEEC39F504EC2C0122425EF54
:100AA000700C12279D9001D9E0FEEF2EFF229001DD
:100AB000DAE0FBA3E0FAA3E0F99001D9E0FF8F822E
:100AC000758300E5C2120E5B9001D5E0FFEF14FFC5
:100AD0009001D9E0FEEEC39F4003C38001D392C1D1
:100AE0009001D9E004F080A3D2C4C2C07D5B7F1C1A
:090AF0001200469001D5E0FF223E
:10279D0075C1007D5B7F1C1200467D5B7F1C1200A6
:0A27AD004675C00075C1D67F0022FA
:1024250090023DE4F0A3E4F07F0212283330C003AC
:102435007F01227F1D1228337F1D12283320C02BD8
:102445007D0A7F1C12004690023EE004F070069063
:10245500023DE004F090023DE0FEA3E0FFD3EF94DF
:0E24650020EE944E40D77F002280D27F0122CD
:0217FB008080EC
:0227C100C1064F
:102543007E007F05900001EEF0A3EFF09017FBE40F
:1025530093FF7E00900001E0FCA3E0FDEF2DFFEE72
:102563003CFE900003EEF0A3EFF0758920538EF448
:10257300438E02758DCC7588407598107F00121FAD
:022583000E2226
:101B9400900209EFF090020AEBF0A3EAF0A3E9F057
:101BA400900209E0FFEF25E0FFEF04FF90020DEF44
:101BB400F0900209E0FFEFC3940140037F0022C2CA
:101BC400AC90020DE0FF74142FF8E6FF90020DE0D4
:101BD400FE74162EF8E6FEEEB50705D2AC7F0022A1
:101BE4007B007A007900C003C002C00190020AE0C1
:101BF400FBA3E0FAA3E0F9D082D083D0E06B7008B5
:101C0400E965827003EA6583604890020DE0FFEFA6
:101C140025E02401F582E43400F583E0FEA3E0FF2F
:101C24008F828E83C083C08290020DE0FF74162FD2
:101C3400F8E6FFD082D083E5822FF582E43583F580
:101C440083E0FF90020AE0FBA3E0FAA3E0F9EF12BD
:071C54000E49D2AC7F012212
:1018000090020EEFF090020FEBF0A3EAF0A3E9F0E4
:1018100090020EE0FFEF25E0FFEF04FF900212EFD1
:10182000F090020EE0FFEFC3940140037F00227BA3
:10183000007A007900C003C002C00190020FE0FBF3
:10184000A3E0FAA3E0F9D082D083D0E06B7008E97E
:1018500065827003EA658370037F0022C2AC900248
:1018600012E0FF74142FF8E6FF900212E0FE7416E7
:101870002EF8E6FEEEB50705D2AC7F0022900212EC
:10188000E0FFEF25E02401F582E43400F583E0FE7B
:10189000A3E0FF8F828E83C083C082900212E0FF9C
:1018A00074162FF8E6FFD082D083E5822FF582E40C
:1018B0003583F583E0FF90020FE0FBA3E0FAA3E09D
:1018C000F9EF120E49900212E0FFEF9017FB93FF21
:1018D000EF14FF900212E0FE74162EF8E6FEEFB54C
:1018E000060D900212E0FF74162FF87600800A9021
:0E18F0000212E0FF74162FF806D2AC7F012220
:100CA300900213EFF0900214EBF0A3EAF0A3E9F043
:100CB300900213E0FFEF25E0FF900217EFF0C2056B
:100CC300900213E0FFEFC3940140037F00227B00F7
:100CD3007A007900C003C002C001900214E0FBA3B4
:100CE300E0FAA3E0F9D082D083D0E06B7008E96525
:100CF300827003EA658370037F0022C2AC900217FF
:100D0300E0FF74162FF8E6FFEF14FF900217E0FEE2
:100D130074142EF8E6FEEF6E602B900217E0FFEFDF
:100D23009017FB93FFEF14FF900217E0FE74142E4D
:100D3300F8E6FEEFB50611900217E0FF74162FF8E0
:100D4300E6FFEF7003D38001C39205300510D2ACE8
:100D53007D5B7F1C1200467D5B7F1C1200462005D5
:100D63009AC2AC900214E0FBA3E0FAA3E0F9120EDE
:100D730003FF900217E0FEEE25E02401F582E43440
:100D830000F583E0FCA3E0FD8D828C83C083C082E9
:100D9300900217E0FE74142EF8E6FED082D083E5AD
:100DA300822EF582E43583F583EFF0900217E0FF9E
:100DB300EF9017FB93FFEF14FF900217E0FE7414FC
:100DC3002EF8E6FEEFB5060D900217E0FF74142F20
:100DD300F87600800A900217E0FF74142FF806904B
:100DE3000213E0FFEF120F1F0DF20000000DF920B8
:100DF3000604D206D299D2AC7F021228337F012295
:101E7A009001FDEFF09001FEEDF09001FFEBF0A371
:101E8A00EAF0A3E9F09001FDE0FFEFC394014003FB
:101E9A007F00227B007A007900C003C002C0019053
:101EAA0001FFE0FBA3E0FAA3E0F9D082D083D0E0FF
:101EBA006B7008E965827003EA658370037F00220C
:101ECA00900202E4F09001FEE0FF900202E0FEEED2
:101EDA00C39F502A9001FDE0FF9001FFE0FBA3E0C1
:101EEA00FAA3E0F9900202E0FEEEFD7C00E92DF98A
:101EFA00EA3CFA120CA3900202E004F080C79002B6
:041F0A0002E0FF22D0
:10207A00900220EFF0900221EBF0A3EAF0A3E9F03E
:10208A00900220E0FFEFC3940140037F00227B000F
:10209A007A007900C003C002C001900221E0FBA3CC
:1020AA00E0FAA3E0F9D082D083D0E06B7008E9654A
:1020BA00827003EA658370037F0022900221E0FBAD
:1020CA00A3E0FAA3E0F9120E03FFEF601A900220D0
:1020DA00E0FF900221E0FBA3E475F001120E93A940
:0A20EA00F0FA120CA380D47F01224B
:101F0E0090022CEFF090022CE0FFEF25E0FFEF04A3
:101F1E00FF90022DEFF090022CE0FFEF25E0FF90F6
:101F2E00022EEFF090022CE0FFEFC3940140037FEE
:101F3E000022C2AC90022CE0FFEF120F1F1F5200C6
:101F4E0000001F58C206C299C29890022DE0FF747D
:101F5E00142FF8760090022DE0FF74162FF87600FD
:101F6E0090022EE0FF74142FF8760090022EE0FF00
:0B1F7E0074162FF87600D2AC7F012211
:03002300021C5B61
:101C5B00C0E0C083C082C0D075D0083098559002C8
:101C6B0043E599F0E51714FFEF651560449017FCF9
:101C7B00E493FFEF14FFEFB51504E5176033900203
:101C8B0043E0FFAE15900003E0FCA3E0FD8D828CDA
:101C9B0083E5822EF582E43583F583EFF09017FC14
:101CAB00E493FFEF14FFEFB51505751500800205E2
:101CBB0015C29830994DAF14E516B50F03D38001BB
:101CCB00C3403CAF16900001E0FCA3E0FD8D828C7D
:101CDB0083E5822FF582E43583F583E0FF900243A1
:101CEB00EFF09017FBE493FFEF14FFEFB5160575BC
:101CFB00160080020516900243E0FF8F998002C206
:0C1D0B0006C299D0D0D082D083D0E03244
:0C27C30044020300000000420207000076
:102585007591007592C07593637594C07595637563
:10259500910443E6807F007E007D007C0012269C2E
:1025A5007B017A02792412266E9001AA120EEE00A2
:0F25B50000000A7F007E007D007C00121AC72202
:10269C00900228120EE253E67F900228E0FCA3E0A1
:1026AC00FDA3E0FEA3E0FF900203120EE2900207EE
:0926BC00E4F0A3E4F043E68022FF
:10266E0090022FEBF0A3EAF0A3E9F053E67F90027D
:10267E0003E0FCA3E0FDA3E0FEA3E0FF90022FE049
:0E268E00FBA3E0FAA3E0F9120EC843E6802297
:101AC7009001A6120EE253E67F900203E0FCA3E02A
:101AD700FDA3E0FEA3E0FF9001AE120EE243E68015
:101AE700900203E0FCA3E0FDA3E0FEA3E0FF90016A
:101AF700A6E0F8A3E0F9A3E0FAA3E0FBD3120EB740
:101B070040339001A6E0FCA3E0FDA3E0FEA3E0FFC5
:101B1700120EA99001AEE0F8A3E0F9A3E0FAA3E062
:101B2700FBEF2BFFEE3AFEED39FDEC38FC9001B2EE
:101B3700120EE2802F9001A6E0F8A3E0F9A3E0FAE5
:101B4700A3E0FB9001AEE0FCA3E0FDA3E0FEA3E071
:101B5700FFC3EF9BFFEE9AFEED99FDEC98FC900119
:101B6700B2120EE29001AAE0FCA3E0FDA3E0FEA3FF
:101B7700E0FF9001B2E0F8A3E0F9A3E0FAA3E0FBED
:0D1B8700C3120EB740047F0180027F0022D0
:0300730002224422
:10224400C0E0C0F0C083C082C0D075D0089002083E
:10225400E0240AF0900207E03400F0900207E0FE68
:10226400A3E0FFC3EF94E8EE9403402C900207E44C
:10227400F0A3E4F0900203E0FCA3E0FDA3E0FEA3DE
:10228400E0FFEF2401FFEE3400FEED3400FDEC34FA
:1022940000FC900203120EE2759104D0D0D082D0DB
:0622A40083D0F0D0E0320F
:1025C4001201100100000040C410000000000102CC
:1025D40003010902200001010080FA09040000023D
:1025E400FF000000070502024000000705820240C8
:0A25F40000000403090401000000C8
:1010AE00900185EEF0A3EFF0900189EBF0A3EAF04A
:1010BE00A3E9F0E49007A8F09007A8E0FF9025C4FC
:1010CE0093FE74402FF582E43407F583EEF090071B
:1010DE00A8E004F0E0B412E0E49007A8F09007A8AE
:1010EE00E0FF9025D693FE74522FF582E43407F577
:1010FE0083EEF09007A8E004F0E0B420E0900185C4
:10110E00E0FAA3E0900748F0EAA3F0EDA3F0ECA319
:10111E00F090077274FFF0A37425F0A374F6F090AC
:10112E000189E0F9A3E0FAA3E0900775C9F0A3EAFC
:10113E00F0A3E9F090018CE0F9A3E0FAA3E09007A8
:10114E0078C9F0A3EAF0A3E9F090018FE0F9A3E0EB
:10115E00FAA3E090077BC9F0A3EAF0A3E9F09001AF
:10116E0092E0FFC394FA500590075AEFF090019366
:10117E00E0900759F0900194E0FEA3E090074CF048
:10118E00EEA3F0E59620E7FB759601759708E596B8
:10119E0020E7FB75960775970FE59620E7FB75968A
:1011AE000975970EE59620E7FB75960B75970775F3
:1011BE00D7E012286EE4900792F0900791F0900716
:1011CE0093F0900786F043E602D2AFE59620E7FB58
:0711DE0075960175970122CF
:1026C5009007867402F0E59620E7FB7596017597ED
:1026D50001E490078EF0A37403F0A3F0E490079251
:0726E500F090079104F022C0
:1004F900E59620E7FB75960EE4F597E59620E7FB70
:10050900759691E59620E7FB90079CE597F0E0FF4B
:1005190030E210E59620E7FB759611E4F597900710
:100529008EF022EF30E410E59620E7FB7596117501
:100539009780E490078EF090078EE0600302062E04
:1005490090079CE020E00302062E7596204396C092
:10055900E49007A8F0E59620E7FB9007A8E0247E41
:10056900F582E43407F583E597F09007A8E004F0F5
:10057900E0B407E1E59620E7FBE4F5969007A8E0EB
:10058900247EF582E43407F583E597F0900781E04E
:10059900FE900780E07C002400FFEC3E900794F079
:1005A900A3EFF0900785E0FE900784E02400FFECBC
:1005B9003E900796F0A3EFF090077FE004603B14AC
:1005C900B40C00505D9005D5F82828730205F9028E
:1005D90005FE02060302060802062B02060D0206A4
:1005E9001202062B02061702061C02062102062623
:1005F900121F89803012230E802B12155880261263
:10060900236D8021120003801C121D1780171224EC
:100619007380121223CB800D1226EC80081200760B
:10062900800312002690078EE06401600302072F01
:1006390090079C7402F0C390078DE0944090078C5A
:10064900E094004061E59620E7FB759620E4900769
:10065900A8F09007A8E0FFC394405022900787E0D4
:10066900FBA3E0FAA3E0F98F82758300120E1CF553
:1006790097E59620E7FB9007A8E004F080D490075F
:1006890088E475F040120E7D90078DE024C0F0904B
:10069900078CE034FFF090078BE02440F090078A44
:1006A900E03400F08052E59620E7FB759620E4904F
:1006B90007A8F09007A8E0FFD390078DE09F900767
:1006C9008CE094004026900787E0FBA3E0FAA3E0C2
:1006D900F99007A8E0F582758300120E1CF597E5DD
:1006E9009620E7FB9007A8E004F080C790079CE0FC
:1006F9004408F0E490078EF0900796E0FEA3E0FF2F
:1007090090078AE0B50611A3E0B5070C90079CE0B5
:100719004408F0E490078EF0E59620E7FB75961102
:0707290090079CE0F5972208
:10002600E59620E7FB75960EE4F597E59620E7FB47
:0D00360075961175972090078E7404F022C6
:101F890090077EE0247F6007146006240270488071
:101F99002D90078FE0B40309900782E0B402028014
:101FA9000E900790E0B40316900782E0B4820F9078
:101FB900078774FFF0A37425F0A374FA800D9007C6
:101FC9008774FFF0A37425F0A374FCF090078CE4E8
:101FD900F0A37402F0800312002690078EE06404D7
:101FE900601012007690078E7401F0E490078AF071
:031FF900A3F02230
:10230E00900780E07048900782E0FFB4021DE596CA
:10231E0020E7FB75960E759702E59620E7FB7596FE
:10232E0014759780E490078FF08026EFB4821DE538
:10233E009620E7FB75960E759702E59620E7FB75DE
:10234E009611759740E4900790F08005800012007A
:0F235E0026E59620E7FB75960EE4F597020076CC
:10155800900794E0B4373CA3E0B40B3790078EE0D3
:101568006404601012007690078E7401F0E490070E
:101578008AF0A3F090079B7480F09007877401F0BD
:10158800A37407F0A3749BF090078CE4F0A304F015
:1015980002165A900795E020E0030216319007934F
:1015A800E030E00854FEF04402F08007900793E032
:1015B80054FDF0E59620E7FB75960E759702E596C3
:1015C80020E7FB759614759710E59620E7FB75964E
:1015D80011759708E59620E7FB759694E59620E740
:1015E800FB90079BE597F0E020E4E9E59620E7FB10
:1015F800759614759710E59620E7FB759691E59614
:1016080020E7FB90079BE597F0E020E3E9E59620CB
:10161800E7FB7596117597089007917408F0900785
:1016280093E0FF30E1034401F0900794E0FCA3E06D
:10163800FD30E10D9007867406F0900791E04410A4
:10164800F0ED30E20D9007867404F0900791E044C5
:1016580020F0E59620E7FB75960EE4F597020076F4
:10236D00900780E07047900782E0FFB4021BE5966E
:10237D0020E7FB75960E759702E59620E7FB75969F
:10238D001475972090078F801DEFB4821EE596205F
:10239D00E7FB75960E759702E59620E7FB7596118E
:1023AD007597109007907403F08005800012002639
:0E23BD00E59620E7FB75960EE4F59702007694
:10000300E59620E7FBE4F596900780E0FFF597EF90
:1000130090078660057403F080037402F002007693
:101D1700900781E024FE601B14603B2402707290E0
:101D270007877401F0A37407F0A37440F09007408D
:101D3700E080539007877401F0A37407F0A37452EF
:101D4700F0900755E0FE900754E07C002400FFEC7C
:101D57003E90078C8035900780E0FFD394034002C4
:101D6700802FEF75F003A42472F582E43407F5831E
:101D7700E0FBA3E0FAA3E0F9900787EBF0A3EAF012
:101D8700A3E9F0120E03FF90078CE4F0A3EFF080B5
:101D97000312002690078CE0FEA3E0FF900796E071
:101DA700FCA3E0FDC39FEC9E500890078CECF0A3CA
:101DB700EDF090078EE06404601012007690078EB5
:0B1DC7007401F0E490078AF0A3F02202
:10247300900786E0FFB40414A374FFF0A37425F05F
:10248300A374FAF090078CE4F0A304F0EFB40316FE
:1024930090078774FFF0A37425F0A374FCF09007F2
:1024A3008CE4F0A304F012007690078E7401F0E43C
:0724B30090078AF0A3F0225C
:1023CB00900780E0D394004042900791E04440F0A6
:1023DB009007867404F0E490078FF0A3F0E5962045
:1023EB00E7FB75960E759702E59620E7FB7596123F
:1023FB00759784E59620E7FB759615759780E5969E
:10240B0020E7FB75960EE4F597800C900786740316
:0A241B00F090078FF0A3F0020076A6
:1026EC0090078774FFF0A37425F0A374FCF0900797
:1026FC008CE4F0A304F012007690078E7401F0E4E1
:07270C0090078AF0A3F02200
:1000760090078EE06404600BE59620E7FB75961109
:040086007597402208
:03004300020F5D4C
:100F5D00C0E0C0F0C083C082C0D075D000C000C05A
:100F6D0001C002C003C004C005C006C00790079DA4
:100F7D00E596F0E59620E7FB75968EE59620E7FB66
:100F8D0090079EE597F0E59620E7FB759686E5962A
:100F9D0020E7FB900798E597F0E030E30BE596200E
:100FAD00E7FB75960B759707900798E030E20312F3
:100FBD0026C5900798E030E014900786E0FF6404A2
:100FCD006004EFB40607900791E04480F0E59620A9
:100FDD00E7FB759682E59620E7FB900798E597F07D
:100FED00E030E0031204F9900798E030E22AE5962C
:100FFD0020E7FB75960E759702E59620E7FB759633
:10100D0091E59620E7FB900799E597F0E054037082
:10101D0007900791E04402F0E59620E7FB75968472
:10102D00E59620E7FB900798E597F0E030E229E59B
:10103D009620E7FB75960E759702E59620E7FB75F2
:10104D009694E59620E7FB900799E597F0E030E060
:10105D0007900791E04404F0E59620E7FB75960EA6
:10106D0090079EE0F597E59620E7FB90079DE596A6
:10107D00F0E59620E7FB900793E030E009900791AB
:10108D00E0600312275DD007D006D005D004D00351
:10109D00D002D001D000D0D0D082D083D0F0D0E01B
:0110AD003210
:1024BA00E49007A8F0E5B964E0603853A90F9007E3
:1024CA00A7E5A9F043B280E5A95407D394014003D4
:1024DA00E4F5A9E4F5B943B9809007A8E014F070CF
:1024EA00F843B9C0E5B930E5FB9007A7E0B40203A9
:0724FA0043A90253A90F22C0
:0F285200900791E0FF9007A7F0E4900791F02224
:1011E5009007A8EDF09007ABEBF0A3EAF0A3E9F0C8
:1011F500900786E0B40606EDD3944040037F0022B5
:10120500E59620E7FB75960E759702E59620E7FBB8
:10121500759694E59620E7FB90079AE597F0E02010
:10122500E003021312E59620E7FB759696E59620F6
:10123500E7FB900792E597F0E0FFEDC39F5006AE00
:1012450005AF068000900792EFF053E6FDE5962086
:10125500E7FB7596E2900792E070030212F690079D
:10126500ABE0FF7020A3A3E090079FF0E59620E791
:10127500FB90079FE0F8A697E004F09007A8E0141C
:10128500F070E9806CEF20E73C9007ABA3E0FAA390
:10129500E0FF9007A1EAF0A3EFF0E59620E7FB90C9
:1012A50007A1E0FEA3E0F5828E83E597F09007A203
:1012B500E004F070069007A1E004F09007A8E014A0
:1012C500F070D7802C9007ABE064FE7021A3A3E0FB
:1012D5009007A5F0E59620E7FB9007A5E0F8E597D0
:1012E500F2E004F09007A8E014F070E880037F00B6
:1012F50022E59620E7FBE4F596E59620E7FB759653
:1013050014E4F59743E602900792E0FF227F00225E
:10073000E49007A7F09007A9F0A3F09007ABEBF0C7
:10074000A3EAF0A3E9F0900786E0B4060DED4C6053
:1007500009D3ED9400EC94104004E4FEFF2253E62C
:10076000FD9007A7E030E003020914E59620E7FBBF
:1007700075960E759702E59620E7FB759691E596BE
:1007800020E7FB9007A7E597F0E030E020E5962012
:10079000E7FB75960EE4F597E59620E7FB759691D5
:1007A000E59620E7FB9007A7E597F080B4D3ED949A
:1007B00040EC94009007A840057440F08002EDF0F2
:1007C000E59620E7FB7596229007A8E070030208E3
:1007D000C49007ABE0702DA3A3E0F99007A9A3E0B4
:1007E000FFE92FF990079FE9F0E59620E7FB9007D6
:1007F0009FE0F8E6F597E004F09007A8E014F070A9
:10080000E80208C49007ABE020E747A3E0FAA3E0C2
:10081000F99007A9E0FEA3E0FFE92FF9EA3EAF0156
:100820009007A1F0A3EFF0E59620E7FB9007A1E089
:10083000FEA3E0F5828E83E0F5979007A2E004F036
:1008400070069007A1E004F09007A8E014F070D7BC
:1008500080729007ABE064FE7021A3A3E09007A52F
:10086000F0E59620E7FB9007A5E0F8E597F2E004B5
:10087000F09007A8E014F070E880499007ABA3E07F
:10088000FAA3E0F99007A9E0FEA3E0FFE92FF9EA57
:100890003EAF019007A3F0A3EFF0E59620E7FB90B1
:1008A00007A3E0FEA3E0F5828E83E493F59790071B
:1008B000A4E004F070069007A3E004F09007A8E01D
:1008C00014F070D6C3ED9440EC94009007AAE04079
:1008D0001F2440F09007A9E03400F074C02DFD748F
:1008E000FF3CFCE49007A7F09007A87440F0801646
:1008F0002DF09007A9E03CF09007A77401F0900755
:10090000A8EDF0E4FCFDE59620E7FB7596117597E0
:100910000102076143E6029007A9E0FEA3E0FF227F
:1027D000900793E04401F0900791E0600BE59620AC
:0927E000E7FB75960B75970F22BB
:0C286E00E59620E7FB75960F75978F220A
:10275D00D007D007D007D006D005D004D003D002C3
:10276D00D001D000D0D0D082D083D0F0D0E0020004
:02277D008B22AD
:10283300900244EFF0900244E014FFF0EF70F622B0
:10004600900232EFF0900233EDF0900233E014FFAD
:10005600F0EF6018900232E0FF900234EFF0900269
:0D00660034E014FFF0EF60E280F480DE2251
:0300000002176F75
:0C176F00787FE4F6D8FD7581200217B6E3
:10177B00022713E493A3F8E493A34003F68001F24A
:10178B0008DFF48029E493A3F85407240CC8C3336F
:10179B00C4540F4420C8834004F456800146F6DF3E
:1017AB00E4800B01020408102040809027B7E47EF0
:1017BB00019360BCA3FF543F30E509541FFEE49333
:1017CB00A360010ECF54C025E060A840B8E493A3FA
:1017DB00FAE493A3F8E493A3C8C582C8CAC583CA25
:1017EB00F0A3C8C582C8CAC583CADFE9DEE780BEDD
:0127CF000009
:100E0300BB010689828A83E0225002E722BBFE02ED
:090E1300E32289828A83E4932220
:100E1C00BB010CE58229F582E5833AF583E022508B
:100E2C0006E92582F8E622BBFE06E92582F8E222D5
:0D0E3C00E58229F582E5833AF583E49322EF
:100E4900BB010689828A83F0225002F722BBFE0188
:020E5900F32282
:100E5B00F8BB010DE58229F582E5833AF583E8F0CD
:100E6B00225006E92582C8F622BBFE05E92582C879
:020E7B00F22261
:100E7D00C5F0F8A3E028F0C5F0F8E5821582700200
:060E8D001583E038F0229D
:100E9300A3F8E0C5F025F0F0E58215827002158312
:060EA300E0C838F0E8226F
:0E0EA900C3E49FFFE49EFEE49DFDE49CFC225A
:100EB700EB9FF5F0EA9E42F0E99D42F0E89C45F091
:010EC7002208
:100EC800BB010789828A83020EE25005E9F8020F06
:0A0ED80045BBFE05E9F8020F5122A8
:0C0EE200ECF0A3EDF0A3EEF0A3EFF02283
:100EEE00A8828583F0D083D082120F05120F0512CF
:100EFE000F05120F05E473E493A3C583C5F0C583F4
:100F0E00C8C582C8F0A3C583C5F0C583C8C582C84D
:010F1E0022B0
:100F1F00D083D082F8E4937012740193700DA3A361
:100F2F0093F8740193F5828883E473740293686075
:060F3F00EFA3A3A380DF75
:0C0F4500ECF608EDF608EEF608EFF622D8
:0C0F5100ECF208EDF208EEF208EFF222DC
:00000001FF
